:020000040800F2
:10000000584F0020C5410008D5270008D727000811
:10001000DB270008DF270008E327000800000000B6
:10002000000000000000000000000000E7270008BA
:10003000E927000800000000EB270008ED27000872
:10004000DF410008DF410008DF410008AF3500084C
:10005000DF410008DF410008DF410008DF41000800
:10006000DF410008DF410008DF410008DF410008F0
:10007000DF410008DF410008DF410008DF410008E0
:10008000DF410008DF410008DF410008DF410008D0
:10009000DF410008DF410008DF410008DF410008C0
:1000A000DF410008DF410008DF410008DF410008B0
:1000B000DF410008DF410008DF410008DF410008A0
:1000C000DF410008DF410008DF410008DF41000890
:1000D000DF41000831410008DF410008B740000857
:1000E000DF410008DF410008DF410008DF41000870
:1000F000DF410008DF410008DF410008DF41000860
:10010000DF410008DF410008DF410008DF4100084F
:10011000DF410008DF410008DF410008DF4100083F
:10012000DF410008DF410008DF410008DF4100082F
:1001300000F002F800F045F80AA090E8000C8244B4
:100140008344AAF10107DA4501D100F03AF8AFF291
:10015000090EBAE80F0013F0010F18BFFB1A43F0A5
:1001600001031847AC550000CC550000103A24BFDD
:1001700078C878C1FAD8520724BF30C830C144BF0C
:1001800004680C607047000000230024002500264E
:10019000103A28BF78C1FBD8520728BF30C148BFEA
:1001A0000B607047642905F09181632905F04F8247
:1001B000732905F05482002070471FB51FBD10B58C
:1001C00010BD05F067FA1146FFF7F7FF02F092FA4B
:1001D00005F085FA03B4FFF7F2FF03BC03F0B2FEAB
:1001E00010B504466CB90020FB490860642003F098
:1001F00018FD0120F949C1F88401642003F011FDC4
:1002000016E00020F4490860642003F00AFD012094
:10021000F249C1F88401642003F003FD0020EE4997
:100220000860642003F0FDFC0120EC49C1F8840162
:1002300010BD70B504460D46002D7DD1C4EB0410F1
:1002400000EB4410E649085CE6490870642004FBB2
:1002500000F10122E44803F075FB642004FB00F187
:100260000122E04803F06EFB04EBC40000EB041035
:100270000B2202EB80010422DB4803F063FB04EB5A
:10028000C40202EB04120B2303EB8201C4EB041241
:1002900002EB4412D24B1A44501C042203F052FBCE
:1002A000012003F09AFC04EBC40000EB04101522BB
:1002B00002EB80011822CC4803F044FB04EBC4029B
:1002C00002EB0412152303EB8201C4EB041202EBD0
:1002D0004412C34B1A44501D182203F033FB04EBA5
:1002E000C40000EB04101F2202EB80010A22BE486A
:1002F00003F028FB04EBC40202EB04121F2303EB00
:100300008201C4EB041202EB4412B54B1A4402F111
:100310001D000A2203F016FBC4EB041000EB44108E
:10032000AF49084490F82700B049087004EBC400B6
:1003300000EB0410292200E0F1E002EB8001012231
:10034000A94803F0FFFA04EBC40000EB04102922D3
:1003500002EB80010122A54803F0F4FAC4EB04107B
:1003600000EB44109E49084490F82A00A049087008
:1003700004EBC40000EB04102A2202EB80010122EE
:10038000994803F0DFFA04EBC40000EB04102A22C2
:1003900002EB80010122964803F0D4FAC4EB04106A
:1003A00000EB44108E49084490F82B0091490870E6
:1003B00004EBC40000EB04102B2202EB80010122AD
:1003C000894803F0BFFA04EBC40000EB04102B22B1
:1003D00002EB80010122874803F0B4FAC4EB041059
:1003E00000EB44107E49084490F82C0082490870C4
:1003F00004EBC40000EB04102C2202EB800101226C
:10040000794803F09FFA04EBC40000EB04102C229F
:1004100002EB80010122784803F094FAC4EB041047
:1004200000EB44106E49084490F82D0073490870A1
:1004300004EBC40000EB04102D2202EB800101222A
:10044000694803F07FFA04EBC40000EB04102D228E
:1004500002EB80010122694803F074FAC4EB041036
:1004600000EB44105E49084490F82E00644908707F
:1004700004EBC40000EB04102E2202EB80010122E9
:10048000594803F05FFA04EBC40000EB04102E227D
:1004900002EB800101225A4803F054FAC4EB041025
:1004A00000EB44104E49084490F828005549087064
:1004B00004EBC40000EB04102F2202EB80010122A8
:1004C000494803F03FFA04EBC40000EB04102F226C
:1004D00002EB800101224B4803F034FAC4EB041014
:1004E00000EB44103E49084490F829004649087042
:1004F00004EBC40000EB0410302202EB8001012267
:10050000394803F01FFA04EBC40000EB041030225A
:1005100002EB800101223C4803F014FAA5E10D2D05
:100520001ED2DFE805F01D071E3B7394B5D6FCFA1A
:10053000F9F8F700C4EB041000EB44102849085CFC
:1005400028490870642004FB00F10122264803F0CA
:10055000F9F9642004FB00F10122224803F0F2F9CA
:1005600082E104EBC40000EB04100B2202EB8001DB
:1005700004221D4803F0E6F904EBC40202EB041266
:100580000B2303EB8201C4EB041202EB4412144B65
:100590001A44501C042203F0D5F965E104EBC400B1
:1005A00000EB0410152202EB800118220E4803F024
:1005B000C9F904EBC40202EB0412152303EB820118
:1005C000C4EB041202EB4412054B1A44501D1822CE
:1005D00003F0B8F948E10000848121420080214203
:1005E000BC0400207C000020060100207D000020CB
:1005F0007E0000207F00002080000020810000207D
:1006000082000020840000208300002004EBC4004E
:1006100000EB04101F2202EB80010A22FE4803F0C7
:1006200091F9012003F0D9FA04EBC40202EB0412A1
:100630001F2303EB8201C4EB041202EB4412F74BBD
:100640001A4402F11D000A2203F07CF90CE1C4EB0C
:10065000041000EB4410F149084490F82700F049D9
:10066000087004EBC40000EB0410292202EB8001A7
:100670000122E94803F066F904EBC40000EB041022
:10068000292202EB80010122E54803F05BF9EBE04F
:10069000C4EB041000EB4410E049084490F82A0031
:1006A000E049087004EBC40000EB04102A2202EBBE
:1006B00080010122D84803F045F904EBC40000EBA7
:1006C00004102A2202EB80010122D64803F03AF9F5
:1006D000CAE0C4EB041000EB4410D049084490F881
:1006E0002B00D149087004EBC40000EB04102B224E
:1006F00002EB80010122C84803F024F904EBC40096
:1007000000EB04102B2202EB80010122C64803F00B
:1007100019F9A9E087E065E043E021E0FFE7C4EBD9
:10072000041000EB4410BD49084490F82C00BF4968
:10073000087004EBC40000EB04102C2202EB8001D3
:100740000122B54803F0FEF804EBC40000EB0410EE
:100750002C2202EB80010122B44803F0F3F883E07D
:10076000C4EB041000EB4410AC49084490F82D0091
:10077000AF49087004EBC40000EB04102D2202EB1B
:1007800080010122A44803F0DDF804EBC40000EB73
:1007900004102D2202EB80010122A54803F0D2F8BB
:1007A00062E0C4EB041000EB44109C49084490F84C
:1007B0002E00A049087004EBC40000EB04102E22A8
:1007C00002EB80010122944803F0BCF804EBC40062
:1007D00000EB04102E2202EB80010122954803F069
:1007E000B1F841E0C4EB041000EB44108B4908441D
:1007F00090F828009049087004EBC40000EB041046
:100800002F2202EB80010122834803F09BF804EBC6
:10081000C40000EB04102F2202EB80010122854866
:1008200003F090F820E0C4EB041000EB44107B4987
:10083000084490F829008149087004EBC40000EBDB
:100840000410302202EB80010122734803F07AF891
:1008500004EBC40000EB0410302202EB8001012203
:10086000744803F06FF800BF00BF70BD10B50446B8
:10087000642004FB00F10122714802F0C0FF04EB88
:10088000C40202EB04120B2303EB8201C4EB04123B
:1008900002EB4412614B1A44501C042202F0AFFFD9
:1008A00004EBC40202EB0412152303EB8201C4EB38
:1008B000041202EB4412594B1A44501D182202F044
:1008C0009EFF04EBC40202EB04121F2303EB820120
:1008D000C4EB041202EB4412504B1A4402F11D0007
:1008E0000A2202F08CFF04EBC40000EB0410292262
:1008F00002EB800101224A4802F081FF04EBC400B0
:1009000000EB04102A2202EB80010122454802F08C
:1009100076FF04EBC40000EB04102B2202EB8001F5
:100920000122414802F06BFF04EBC40000EB04100D
:100930002C2202EB800101223C4802F060FF04EB14
:10094000C40000EB04102D2202EB80010122384884
:1009500002F055FF04EBC40000EB04102E2202EB62
:1009600080010122334802F04AFF04EBC40000EB8F
:1009700004102F2202EB800101222F4802F03FFFDA
:1009800004EBC40000EB0410302202EB80010122D2
:100990002A4802F034FF2A480078C4EB041101EB26
:1009A00044111E4A50541E480078C4EB041101EB58
:1009B0004411114481F827001A480078C4EB04114F
:1009C00001EB4411114481F82A0017480078C4EB68
:1009D000041101EB4411114481F82B0013480078F5
:1009E000C4EB041101EB4411114481F82C001048B0
:1009F0000078C4EB041101EB4411114481F82D007F
:100A00000C480078C4EB041101EB4411114481F847
:100A10002E000948007815E006010020BC040020E3
:100A20007D0000207E0000207F000020800000204C
:100A3000810000208200002084000020830000202C
:100A40007C000020C4EB041101EB4411114481F837
:100A50002800FE480078C4EB041101EB4411114456
:100A600081F8290010BD10B5002400BFFF21F8480F
:100A700004F0F2F8641C41F288308442F6DD10BDC7
:100A800070B504460D462946204604F0E5F800BF3F
:100A90004021EF4804F04EF90028F9D070BD70B540
:100AA00005460C4604E021782846FFF7E9FF641C60
:100AB00020780028F7D170BD10B5E6488288E6A1FD
:100AC000E64804F091FC4021E14804F040F9E4A13B
:100AD000DF48FFF7E4FFE149DD48FFF7E0FFE2A16F
:100AE000DB48FFF7DCFFFFF7BEFF042003F099F8B7
:100AF000D8488279D8A1D94804F076FC4021D4485E
:100B000004F025F9D9A1D248FFF7C9FFD349D0484D
:100B1000FFF7C5FFD4A1CE48FFF7C1FFFFF7A3FF42
:100B2000042003F07EF8CB48C279CBA1CB4804F077
:100B30005BFC4021C64804F00AF9CFA1C448FFF786
:100B4000AEFFC649C248FFF7AAFFC7A1C048FFF7DA
:100B5000A6FFFFF788FF042003F063F8BD48027882
:100B6000BDA1BE4804F040FC4021B94804F0EFF8B4
:100B7000C4A1B748FFF793FFB849B548FFF78FFF07
:100B8000B9A1B348FFF78BFFFFF76DFF042003F017
:100B900048F8B0484278B0A1B04804F025FC4021A4
:100BA000AB4804F0D4F8BAA1A948FFF778FFAB49E5
:100BB000A748FFF774FFACA1A548FFF770FFFFF748
:100BC00052FF042003F02DF8A2488278A2A1A34886
:100BD00004F00AFC40219E4804F0B9F8AFA19C48FB
:100BE000FFF75DFF9D499A48FFF759FF9EA198487E
:100BF000FFF755FFFFF737FF042003F012F810BD91
:100C000010B5A948007800287DD1A84908708DE06A
:100C1000A748A6490978415CA6480088C0EB0012A5
:100C200002EB4010A44A1044401CA04A12788154A0
:100C30000221A0480088FFF7FCFA9D489B490978EB
:100C4000425C85A1854804F0CFFB9848007830B11C
:100C500001281BD0022830D003285ED144E0402177
:100C60007B4804F074F895A17948FFF718FF7B4999
:100C70007748FFF714FF7CA17548FFF710FFFFF7D7
:100C8000F2FE764990A004F0A3FB46E040217048B4
:100C900004F05DF891A16E48FFF701FF6F496C48C1
:100CA000FFF7FDFE70A16A48FFF7F9FEFFF7DBFED4
:100CB0006A498DA004F08CFB2FE04021644804F0C9
:100CC00046F88AA16248FFF7EAFE64496048FFF7E8
:100CD000E6FE65A15E48FFF7E2FEFFF7C4FE5F494E
:100CE00081A004F075FB18E04021594804F02FF86A
:100CF00081A15748FFF7D3FE58495548FFF7CFFE6B
:100D000059A1534800E0AEE1FFF7C9FEFFF7ABFE83
:100D1000524975A004F05CFB00BF00BF042002F044
:100D200080FF62480078401C604908705F48007886
:100D30000428FFF66DAF95E1FFF7BEFE714800880D
:100D400000F400400028F6D06E480088C0F30D0083
:100D50006D49088008460088012804D16BA004F082
:100D600037FB01F008FA00205049087014E06B4886
:100D70004E490978405C6A490978884207D14B4856
:100D8000007868490870604800784849087047480A
:100D90000078401C454908705B480088401E434964
:100DA00009788842E3DA58480088401E5B49085CAD
:100DB0005D49C978884247D15CA004F009FB5EA078
:100DC00004F006FB3B4800783A490988C1EB011260
:100DD00002EB4111384A5054012136480088FFF790
:100DE00028FA00203149087011E0002131480088BC
:100DF000C0EB001202EB40102F4A1044401D2B4A5A
:100E00001278815429480078401C284908702748E6
:100E100000781828E9DB00202449087098E03F4852
:100E200022490978415C23480088C0EB001202EB9C
:100E30004010214A1044401D1C4A12788154374802
:100E40001A4A1278815C7BE009E1000083000020EF
:100E5000004800402438002025640000D80000200D
:100E60007432302E7478743D220000007431392EB3
:100E70007478743D2200000074372E7478743D221B
:100E80000000000074382E7478743D2200000000C9
:100E900074392E7478743D22000000007431302EB5
:100EA0007478743D22000000740000201B000020B4
:100EB0000500002016000020BC04002074302E74B1
:100EC00078743D2200000000C4E3B5C4BFA8BAC5D1
:100ED000CEAAA3BA202573200000000074312E741E
:100EE00078743D22000000002573200074322E74B7
:100EF00078743D220000000074332E7478743D2213
:100F000000000000C000002014000020BDF8C8EB65
:100F1000D6F7B2CBB5A5200D0A0D0A002E48002049
:100F2000480000201D0000205C000020D7A2B2E194
:100F3000B3C9B9A62C20000020D1A7BAC5A3BA0016
:100F4000FEA004F045FAFE480078401CFC490870F9
:100F5000FB480078FB4909788842FFF660AF03211F
:100F6000F9480088FFF765F9F8A004F031FA00208D
:100F7000F349087011E00021F3480088C0EB00122B
:100F800002EB4010F44A10441D30ED4A12788154AF
:100F9000EB480078401CEA490870E94800780A28C4
:100FA000E9DBE8480078801CE54908700020EB493F
:100FB000087020E0EA48E2490978415CE24800888C
:100FC000C0EB001202EB4010E34A10441D30E34A2C
:100FD00012788154E248DA4A1278815CD7A004F092
:100FE000F7F9D7480078401CD5490870DB480078ED
:100FF000401CDA490870DB480088001FD049097896
:101000008842D7DC0421D0480088FFF712F9D6A027
:1010100004F0DEF9D4A004F0DBF9CB480088401CD2
:10102000C949088008460078D049087001223C214F
:10103000CF4802F087FC01223C21CC4802F082FC20
:1010400001223C21C94802F0DAFBC8480078BE49B9
:101050000880AFF2481004F0BBF901F08CF80020D2
:10106000C449088068E610BD10B5C3480078002860
:101070007ED1B349087085E0C048B1490978425C27
:10108000AFF22C21BE4804F0AFF9AD48007830B182
:1010900001281ED0022836D0032868D14DE0402117
:1010A000B84803F054FEAFF2EC11B648FFF7F7FC76
:1010B000B349B448FFF7F3FCAFF25421B148FFF74E
:1010C000EEFCFFF7D0FCAE49AFF2042004F080F94B
:1010D0004DE04021AB4803F03AFEAFF20021A948B1
:1010E000FFF7DDFCA649A748FFF7D9FCAFF288213E
:1010F000A448FFF7D4FCFFF7B6FCA149AFF21820D3
:1011000004F066F933E040219E4803F020FEAFF280
:1011100024219C48FFF7C3FC99499A48FFF7BFFC7C
:10112000AFF2BC219748FFF7BAFCFFF79CFC94494B
:10113000AFF24C2004F04CF919E04021914803F043
:1011400006FEAFF24C218F48FFF7A9FC8C498D4871
:10115000FFF7A5FCAFF2F0218A48FFF7A0FCFFF7EC
:1011600082FC8749AFF2802004F032F900BF00E032
:1011700057E100BF042002F054FD71480078401C84
:101180006F4908706E4800780428FFF675AF47E194
:10119000FFF792FC7748008800F400400028F6D062
:1011A00074480088C0F30D006E4908800846008826
:1011B000012805D1AFF2AC2004F00AF900F0DBFF02
:1011C00000205F49087014E065485D490978405C7B
:1011D0006D490978884207D1594800785949087003
:1011E000604800785649087055480078401C5449BA
:1011F00008705C480088401E514909788842E3DA4B
:1012000058480088401E5649085C6049C9788842A1
:101210007ED1AFF2E82004F0DBF8AFF2E42004F076
:10122000D7F85B4800785A490988C1EB011202EBF4
:101230004111494A5054012155480088FEF7F9FFF1
:1012400000203F49087011E0002151480088C0EBA0
:10125000001202EB4010404A1044401D384A1278F8
:10126000815437480078401C35490870344800786C
:101270001828E9DB0020324908701BE03848304963
:101280000978415C42480088C0EB001202EB401034
:10129000314A1044401D2A4A127881543048284A65
:1012A0001278815C25A004F093F825480078401C52
:1012B0002349087022480078224909788842DDDBFA
:1012C000032133480088FEF7B4FF20A004F080F823
:1012D00000201B49087011E000212D480088C0EB58
:1012E000001202EB40101C4A10441D30144A1278C0
:1012F000815413480078401C114908701048007848
:101300000A28E9DB0F480078801C0D49087000E0CE
:1013100083E00020114908704EE01148084909781F
:10132000415C1B480088C0EB001202EB40100A4AE7
:1013300010441D30094A127881542BE025630000C7
:101340001B0000201D00002016000020202020206F
:10135000C3FBD7D6A3BA0000BC0400201C000020A9
:101360002E480020140000200D0A00007B00002001
:1013700006010020C00000207400002005000020AD
:10138000D800002000480040480000205C000020F9
:1013900018000020FD48FE4A1278815CAFF264001C
:1013A00004F016F8FA480078401CF9490870F9482A
:1013B0000078401CF7490870F7480088001FF4497E
:1013C00009788842A9DC0421F4480088FEF731FF3F
:1013D000AFF26C0003F0FCFFAFF2740003F0F8FF13
:1013E000EF480078EF49087019223C21EE4802F0DE
:1013F000A9FA01223C21EB4802F0A4FA01223C2187
:10140000E84802F0FCF9E7480078E5490880AFF2C7
:10141000045003F0DDFF00F0AEFE0020E349088039
:10142000B6E610BDE2A003F0D3FFE5A003F0D0FFC5
:101430007DE0DE48008800F4004090B1DB48008881
:10144000C0F30D00D449088008460088012805D162
:10145000AFF2485003F0BCFF00F08DFE0020D349EE
:101460000880D949522001F0AAFCD84908700846E2
:10147000007830B902200870D54801F0D6FCD34975
:101480000870D248007838B90220D0490870D04896
:1014900001F039FDCD490870CC48007850B90220E0
:1014A000CA490870CA4BCB4A0621602001F065FD8D
:1014B000C6490870C5480078C8BB0020B449087008
:1014C0002DE00020B349087020E0B1480078C0EB5F
:1014D000001101EB4010C0490844401CAD49097897
:1014E000405CBB49AB4A1278895C884209D1A94863
:1014F0000078032805D1A6480078A8490880FFF79E
:10150000B3FDA4480078401CA2490870A1480078A7
:101510000428DADB9E480078401C9D4908709C48EE
:1015200000789F4909888842CBDBFFF769FB80E799
:1015300070B504460D464021A84803F008FCA8A158
:10154000A648FFF7ACFAC4EB041000EB4410A24A23
:10155000104400F11D01A148FFF7A1FAA2A19F4884
:10156000FFF79DFAFFF77FFA042002F05AFB4021B3
:101570009A4803F0ECFB9DA19848FFF790FAC4EB62
:10158000041000EB4410944A1044411D9348FFF7A7
:1015900086FA95A19148FFF782FAFFF764FA0420D2
:1015A00002F03FFB40218D4803F0D1FB92A18B4814
:1015B000FFF775FAFFF757FA042002F032FB4021DB
:1015C000864803F0C4FB91A18448FFF768FAC4EB96
:1015D000041000EB44108049084490F82920AFF231
:1015E00088718D4803F000FF8B497C48FFF757FA5C
:1015F0008AA17A48FFF753FAC4EB041000EB4410B9
:101600007549084490F82820AFF2B471824803F07D
:10161000EBFE81497148FFF742FA81A16F48FFF75D
:101620003EFAC4EB041000EB44106B49084490F8F8
:101630002720AFF2DC71784803F0D6FE7649674880
:10164000FFF72DFA77A16548FFF729FAFFF70BFAA4
:10165000042002F0E6FA002D46D040215F4803F056
:1016600076FB71A15D48FFF71AFAFFF7FCF9042039
:1016700002F0D7FA4021594803F069FB6FA157489F
:10168000FFF70DFA70480278AFF63401624803F0B4
:10169000ABFE61495148FFF702FA60A14F48FFF7DE
:1016A000FEF96A480278AFF650015B4803F09CFEF1
:1016B00059494A48FFF7F3F959A14848FFF7EFF9AC
:1016C00063480278AFF67001534803F08DFE52492B
:1016D0004248FFF7E4F953A14048FFF7E0F9FFF76C
:1016E000C2F9042002F09DFA70BD10B540213B48BC
:1016F00003F02DFBAFF63C013848FFF7D0F93AA1D3
:101700003648FFF7CCF9FFF7AEF9042002F089FA6A
:101710004021324803F01BFBAFF640012F48FFF792
:10172000BEF931A12D48FFF7BAF9FFF79CF9042063
:1017300002F077FA4021294803F009FBAFF6540183
:101740002648FFF7ACF928A12448FFF7A8F9FFF7CE
:101750008AF9042002F065FA4021204803F0F7FAE4
:10176000AFF66C011D48FFF79AF91FA11B48FFF760
:1017700096F9FFF778F9042002F053FA4021174850
:1017800003F0E5FA16A1154864E000002E48002099
:101790001B0000201C000020140000201800002066
:1017A000160000207B00002006010020C000002061
:1017B000D7A2B2E1C7B0C7EBCBA2BFA8A3A12000BC
:1017C0000D0A0D0A00000000030000207400002034
:1017D0000500002075000020BC04002000480040E7
:1017E0007431342E7478743D220000007431332E2D
:1017F0007478743D220000007431322E7478743D88
:1018000022D7DCCAB1BCE422000000007432352EBD
:101810007478743D22000000D80000206820000089
:101820006D200000732200007432382E7478743DED
:1018300022B1BEB4CECAB1BCE42200007432392E4B
:101840007478743D2200000085000020860000208E
:1018500087000020FFF723F9AFF27401FE48FFF77D
:101860001EF9FFF700F9042002F0DBF94021FA48E5
:1018700003F06DFAAFF28C01F748FFF710F9AFF201
:101880009801F548FFF70BF9FFF7EDF8042002F097
:10189000C8F94021F04803F05AFAF0A1EE48FFF7EA
:1018A000FEF8F0A1EC48FFF7FAF8FFF7DCF80420A7
:1018B00002F0B7F94021E84803F049FAAFF2B40169
:1018C000E548FFF7ECF8E7A1E348FFF7E8F8FFF792
:1018D000CAF8042002F0A5F94021DF4803F037FAE6
:1018E000AFF2A801DC48FFF7DAF8DEA1DA48FFF72B
:1018F000D6F8FFF7B8F8042002F093F94021D64853
:1019000003F025FAD8A1D448FFF7C9F8D5A1D248E9
:10191000FFF7C5F8FFF7A7F8042002F082F940218D
:10192000CD4803F014FAD3A1CB48FFF7B8F8CDA106
:10193000C948FFF7B4F8FFF796F8042002F071F9F0
:1019400010BDCFA003F044FDAFF28C1003F040FDBA
:1019500051E1FFF7B1F8FFF7C8FECC48008800F46A
:101960000040E8B1C9480088C0F30D00C8490880AC
:1019700008460088012810D1C6480078C0EB001145
:1019800001EB4010C449084490F82A0028B9AFF68A
:10199000842003F01DFD00F0EEFB0020BB49088011
:1019A000BE49522001F00BFABD4908700846007884
:1019B00030B902200870BB4801F037FAB849087006
:1019C000B748007838B90220B5490870B54801F029
:1019D0009AFAB3490870B248007850B90220B04969
:1019E0000870B04BB04A0621602001F0C6FAAC493D
:1019F0000870AB48007800287CD10220A849087004
:101A0000AA49042001F0E4FAA54908700020A14980
:101A100008706BE0A3489F490978425CAFF6C83173
:101A2000A34803F0E1FC9B48007830B1012818D0AE
:101A300002282AD0032850D13BE04021864803F0F9
:101A400086F9AFF688318448FFF729F8984982482B
:101A5000FFF725F883A18048FFF721F8FFF703F887
:101A60003BE040217C4803F072F9AFF690317A48B0
:101A7000FFF715F88E497848FFF711F879A17648F5
:101A8000FFF70DF8FEF7EFFF27E04021724803F063
:101A90005EF9AFF6A8317048FFF701F884496E4847
:101AA000FEF7FDFF6FA16C48FEF7F9FFFEF7DBFFC5
:101AB00013E04021684803F04AF9AFF6C4316648A4
:101AC000FEF7EDFF7A496448FEF7E9FF65A1624839
:101AD000FEF7E5FFFEF7C7FF00BF00BF042002F0DE
:101AE000A0F86C480078401C6A4908706948007882
:101AF00004288FDB6A48007800287CD1654908708B
:101B000037E100206B49087029E162480078C0EB9A
:101B1000001101EB401060490844401C65490978F8
:101B2000405C6049634A1278895C88427DD1614893
:101B300000780328FAD157480078C0EB001101EB78
:101B400040105549084490F82A000028EED15A4820
:101B5000C07950490978C1EB011202EB41114E4A9C
:101B6000114491F82B10884230D15348807849496C
:101B70000978C1EB011202EB4111474A114491F877
:101B80002E10401A4C494978424A1278C2EB02138F
:101B900003EB4212404B1A4492F82D20891A3C2242
:101BA00002FB0100444909783A4A1278C2EB021359
:101BB00003EB4212384B1A4492F82C20891A4FF446
:101BC000616202FB01003D49086002E006203B49DA
:101BD00008603A48006805280BD82E480078C0EB0A
:101BE000001101EB40102C49084490F82B0000280C
:101BF0001BD133A000E0BCE203F0EAFB2E48C07921
:101C000024490978C1EB011202EB4111224A114427
:101C100081F82B00284800781E490978C1EB011291
:101C200002EB41111C4A114400E093E081F82C00C2
:101C30002148407817490978C1EB011202EB4111A4
:101C4000154A114481F82D001B4880781149097804
:101C5000C1EB011238E00000004800407431312E21
:101C60007478743D220000007432382E7478743D0C
:101C7000220000007431322E7478743D220000007E
:101C8000BFBC20C7DA20A3A120000000C0000020B4
:101C9000140000201B000020BC04002003000020D2
:101CA000740000200500002075000020F6000020D0
:101CB000D80000201C0000202438002070000020E4
:101CC000BDF80D0A0000000002EB4111FE4A11446C
:101CD00081F82E000120FD490978C1EB011202EBC9
:101CE0004111F94A114481F82A000020FEF778FAE0
:101CF000012001F096FF0021F4480078FFF718FC5E
:101D00004021F34803F023F8AFF2B001F048FEF7AA
:101D1000C6FEF0A1EE48FEF7C2FEAFF2B801EC48F5
:101D2000FEF7BDFEFEF79FFE042001F07AFF402182
:101D3000E74803F00CF8E8A1E548FEF7B0FEFEF72F
:101D400092FE0021E1480078FEF773FA4FF47A70B2
:101D500001F067FFE4480078401CE3490870E2485E
:101D600000780428FFF6D1AED8480078401CD74947
:101D70000870D6480078DD4909888842FFF6C1AE70
:101D80000020D2490870EDE10020D7490870DFE15A
:101D9000CE480078C0EB001101EB4010CA4908445E
:101DA000401CD1490978405CD149CF4A1278895CFE
:101DB00088426ED1CC4800780328FAD1C348007815
:101DC000C0EB001101EB4010BF49084490F82A0015
:101DD0000128EED1C748C079BC490978C1EB01128E
:101DE00002EB4111B84A114491F82B10884230D1CE
:101DF000C0488078B5490978C1EB011202EB411166
:101E0000B14A114491F82E10411ABA484078AF4AAD
:101E10001278C2EB021303EB4212AB4B1A4492F856
:101E20002D20801A3C2202FB0010B2490978A74AF3
:101E30001278C2EB021303EB4212A34B1A4492F83E
:101E40002C20891A4FF4616202FB0100AA49086044
:101E500002E00620A8490860A7480068A749086072
:101E60000020A7490870A7490870A74908700AE030
:101E7000A2480068A0F56160A0490860A048007809
:101E8000401C9F4908709D480068B0F5616FEFD80D
:101E90000AE093E0994800683C38984908609948FE
:101EA0000078401C97490870944800683C28F1D895
:101EB00092480078944908708F48006805287DD9B9
:101EC00092A003F085FA81480078C0EB001101EB85
:101ED00040107D49084490F8270087490968084464
:101EE00085490860002079490978C1EB011202EBAD
:101EF0004111754A114481F827001AE07E480068B4
:101F0000A0F561607C49086070480078C0EB001162
:101F100001EB40106C49084490F82900401C6B49C3
:101F20000978C1EB011202EB4111674A114481F8B3
:101F3000290071480068B0F5616FDFD819E06E487C
:101F400000683C386C49086060480078C0EB0011BC
:101F500001EB40105C49084490F82800401C5B49A4
:101F60000978C1EB011202EB4111574A114481F883
:101F70002800614800683C28E1D85F480078534950
:101F80000978C1EB011202EB41114F4A114481F86B
:101F900027004E480078C0EB001101EB40101146BD
:101FA000084490F828003C282BDD48480078C0EB16
:101FB000001101EB40101146084400E0C3E090F826
:101FC00028003C3841490978C1EB011202EB41116C
:101FD0003D4A114481F828003C480078C0EB0011CC
:101FE00001EB40101146084490F82900401C374985
:101FF0000978C1EB011202EB4111334A114481F817
:1020000029000120FEF7ECF8012001F00AFE012171
:102010002E480078FFF78CFA40212D4802F097FEF9
:10202000AFF2C8312A48FEF73AFD3AA12848FEF738
:1020300036FDAFF2D0312648FEF731FDFEF713FD35
:10204000042001F0EEFD4021214802F080FE32A183
:102050001F48FEF724FDFEF706FD2648C0791B4900
:102060000978C1EB011202EB4111174A114481F8C2
:102070002B002048007815490978C1EB011202EBCA
:102080004111114A114481F82C001A4840780F4937
:102090000978C1EB011202EB41110B4A114481F89E
:1020A0002D001448807809490978C1EB011202EB30
:1020B0004111054A114481F82E0000200349097896
:1020C000C1EB011230E00000BC0400201B00002026
:1020D00000480040BDF800007431312E70636F3D40
:1020E00036333530340000001C000020160000207C
:1020F0000500002024380020700000208800002007
:10210000850000208600002087000020B3F60D0A1D
:1021100000000000B3F600007431312E70636F3D93
:10212000323032340000000002EB4111FE4A11440B
:1021300081F82A000021FD480078FEF77AF84FF474
:102140007A7001F06EFDFA480078401CF84908707A
:10215000F74800780428FFF61BAEF4480078401CCE
:10216000F2490870F1480078F24909888842FFF680
:102170000BAEFFF7EEBB20E1FFF7B7FAFEF79CFCD2
:10218000ED48008800F400400028F4D0EA480088B8
:10219000C0F30D00E94908800020E44908701BE005
:1021A000E748E2490978405CE649E04A1278895CF0
:1021B000884203D0E1480078DC490870DF48008895
:1021C000401EDA490978884201D1FFF7BAFBD748A7
:1021D0000078401CD5490870D8480088401ED34973
:1021E00009788842DCDA0020D049087017E0D4482A
:1021F000CE490978405CD449CC4A1278895C88423F
:1022000002D00820C9490870C8480078072801D1C1
:10221000FFF708F9C5480078401CC4490870C34856
:1022200000780728E3DDC548008802287ED1002019
:10223000BE490870B1E0BD480078C0EB001202EB67
:102240004010B94A115CC1A003F0C2F8B748007849
:10225000C0EB001202EB4010B34A104400F11D0124
:10226000BCA003F0B5F8B1480078C0EB001202EB57
:102270004010AD4A1044411DB6A003F0A9F8AB4888
:102280000078C0EB001202EB4010A74A104490F80F
:102290002B10AEA003F09CF8A4480078C0EB00120D
:1022A00002EB4010A04A104490F82C10A7A003F0B5
:1022B0008FF89E480078C0EB001202EB40109A4A5B
:1022C000104490F82D10A1A003F082F897480078F0
:1022D000C0EB001202EB4010934A104490F82E100D
:1022E0009AA003F075F891480078C0EB001202EB59
:1022F00040108D4A104490F82A1094A003F068F81A
:102300008A480078C0EB001202EB4010864A104465
:1023100090F829108DA003F05BF884480078C0EB9A
:10232000001202EB4010804A104400E03CE090F8BC
:10233000281086A003F04CF87C480078C0EB00120F
:1023400002EB4010784A104490F827107FA003F069
:102350003FF800207649087013E074480078C0EB1D
:10236000001202EB4010704A1044401C704A127870
:10237000815C7AA003F02CF86D480078401C6C4911
:1023800008706B4800780428E7DB75A003F020F89C
:1023900066480078401C65490870644800786549C3
:1023A00009888842FFF647AF64480088072801D1B2
:1023B00000F004F8002060490880DDE60AE04FF4F0
:1023C000FA7001F02EFC4FF4FA7001F02AFC65A0BF
:1023D00002F0FEFF01F0F0F94EF614718842EED1E2
:1023E00061A002F0F5FF84E15348008800F400404A
:1023F0000028F8D05048007800F03F004F4908808E
:1024000008460088062827D10020484908701FE0A8
:10241000192246480178574801F094FA56A002F074
:10242000D7FF192241480178564801F0E8F956488B
:10243000018856A002F0CCFF524958A002F0C8FF14
:10244000142001F0EEFB39480078401C3749087031
:1024500036480078C828DBDB38480088042861D17A
:1024600051A002F0B5FF01223C21424801F06AFA76
:1024700000202E490870E5E02C480078642200FB1B
:1024800002F101223B4801F05DFA2848007800EB98
:10249000C00202EB00100B2202EB8001042235483F
:1024A00001F050FA2148007800EBC00202EB001066
:1024B000152202EB800118222E4801F043FA1B4836
:1024C000007800EBC00202EB00101F2202EB80013B
:1024D0000A22284801F036FA1448007800EBC002BE
:1024E00002EB0010292202EB80010122214801F0B9
:1024F00029FA0E48007800EBC00202EB00102A22F5
:1025000002EB800101221B4801F01CFA0748007809
:1025100000EBC00202EB00102B2202EB8001012233
:10252000144847E098E00000BC0400201B00002095
:102530001C00002016000020C00000201400002015
:102540002E48002020000020340000202564202098
:1025500000000000257320200000000025642000FA
:10256000200D0A004F4B0000466C61736874657360
:10257000740D0A00060100205772697465204F4BE4
:1025800000000000A30400201E00002052656164CA
:10259000204F4B20202025640000000020202564CF
:1025A00020200D0A00000000636C65617220616CE0
:1025B0006C0D0A0001F0C6F96F48007800EBC0020C
:1025C00002EB00102C2202EB800101226B4801F08B
:1025D000B9F96948007800EBC00202EB00102D2227
:1025E00002EB80010122654801F0ACF962480078F5
:1025F00000EBC00202EB00102E2202EB8001012250
:102600005E4801F09FF95C48007800EBC00202EBE5
:1026100000102F2202EB80010122584801F092F9AC
:102620005548007800EBC00202EB0010302202EBAC
:1026300080010122514801F085F94F480078401C83
:102640004D4908704C4800784D4909888842FFF68A
:1026500013AF4CA002F0BCFE4E48008805283CD1C8
:102660004DA002F0B5FE0020434908702CE0002088
:1026700041490978C1EB011202EB41114A4A114468
:1026800081F829003C490978C1EB011202EB4111A4
:10269000454A114481F8280037490978C1EB0112F5
:1026A00002EB4111404A114481F8270000213248D1
:1026B0000078FDF7BEFD30480078FEF7D7F82E48C9
:1026C0000078401C2C4908702B4800782C49098858
:1026D0008842CCDB35A002F07BFE2E480088012822
:1026E00004D1354802F074FEFFF745FD0020334960
:1026F000088079E6092001F0CCFB01F055FA01F0E1
:1027000039FA4FF4A06001F07DFD4FF4E13001F0A3
:1027100028FC4FF4165001F070FC00F0E8FE00F0C9
:102720009AFA00F0E5FF01223C21254801F067F804
:102730002348017823A002F04BFE2148007810497D
:1027400008800846018821A002F042FE00200A49C4
:10275000087008E008480078FEF788F80648007816
:10276000401C0549087004480078054909888842DA
:10277000F0DBFFF7E6F800001B0000200601002058
:1027800016000020636C65617220616C6C206F6BB9
:102790000D0A000014000020636C656172207469EA
:1027A0006D650D0A00000000BC040020636C6561CB
:1027B00072206F6B0D0A00000C0F0008C000002093
:1027C0007B000020256420202000000025640D0AE5
:1027D00000000000704700BFFEE700BFFEE700BF3B
:1027E000FEE700BFFEE77047704770477047000084
:1027F0000CB50020019000906C48006840F48030D7
:102800006A49086000BF6948006800F40030009021
:102810000198401C0190009818B90198B0F5A06F7C
:10282000F1D16248006800F4003010B1012000903E
:1028300001E0002000900098012843D15C48006826
:1028400040F010005A4908600846006820F0030074
:1028500008600846006840F002000860534840687D
:10286000524948600846406848600846406840F45D
:10287000806048600846406820F47C104860084644
:10288000406840F4E81048600846006840F08070F6
:10289000086000BF4548006800F000700028F9D0CB
:1028A0004248406820F003004049486008464068BC
:1028B00040F00200486000BF3C48406800F00C0057
:1028C0000828F9D10CBD10B5FFF792FF10BD10B567
:1028D0003648006840F00100344908600846406806
:1028E0003449084031494860084600683249084088
:1028F0002E4908600846006820F4802008600846D9
:10290000406820F4FE0048604FF41F008860FFF725
:10291000DAFF4FF000602949086010BD10B50021B2
:1029200000200022214B5B6803F00C0121B1042937
:1029300006D0082928D107E0214B224C236027E04C
:102940001F4B204C236023E0184B5B6803F470108E
:10295000164B5B6803F48032022303EB904022B9EC
:10296000194B4343174C23600DE0104B5B6803F495
:10297000003323B1144B4343124C236003E0104B4C
:102980004343104C236003E00D4B0E4C236000BF0B
:1029900000BF064B5B68C3F303130C4CE15C094BAF
:1029A0001B68CB40074C236010BD000000100240A4
:1029B000002002400000FFF8FFFFF6FE08ED00E0F7
:1029C00000127A00A000002000093D00A4000020B1
:1029D000002103E000BF00BF00BF491C8142F9D3C2
:1029E0007047014600BFFE48008800F00200002842
:1029F000F9D0FB48001D018000BFF948008800F0B5
:102A000001000028F9D0F648001D0088C0B27047C8
:102A1000F448806940F00100F24988610846806905
:102A200040F0080088610846806940F00400886131
:102A30000846C06940F48040C861EB48006820F453
:102A40007F20E94908600846006840F44C3008607F
:102A5000E6480068C0F31300E449086008460068CF
:102A6000E3490843E1490860DD4808380088DC494B
:102A7000083908800846008840F40070088008463D
:102A8000008840F4807008800846008840F0040008
:102A900008800846008808800846008820F0020068
:102AA00008800846008820F0010008800846008859
:102AB00040F03800088008460088088008460088F2
:102AC00040F040000880704710B502460B460820D1
:102AD000C549143108607E2000EA42042046FFF711
:102AE00080FF1846FFF77DFF0820BF4910310860BE
:102AF00010BD10B5024600240820BB4914310860FF
:102B00007E2000EA420040F080031846FFF769FF8C
:102B10000020FFF766FF04460820B3491031086023
:102B2000204610BD70B505460C4600262846FFF726
:102B3000E0FF064646EA04012846FFF7C5FF70BDE0
:102B400010B51420FFF7D5FF044604F0030018B9B0
:102B500003211420FFF7E6FF10BD70B505460C46B3
:102B600000262846FFF7C5FF064626EA0401284648
:102B7000FFF7AAFF70BD10B50446412C26D10821ED
:102B80000846FFF7EAFF3D211120FFF79DFF862150
:102B90001720FFF799FF7F212620FFF795FF1E21C1
:102BA0002D20FFF791FF00212C20FFF78DFF8D21B5
:102BB0002A20FFF789FF3E212B20FFF785FF4FF4E6
:102BC0007A70FFF705FFFFF7BBFF01E0012010BDA2
:102BD0000020FCE700B503211420FFF7BEFF00BD75
:102BE00000B510208049103108600A20FFF7F0FE80
:102BF00010207D49143108600A20FFF7E9FE1020FB
:102C00007949103108600A20FFF7E2FE0F21012008
:102C1000FFF75AFF0F210120FFF756FF0A20FFF7A9
:102C2000D7FE3D211120FFF74FFF1E212D20FFF77A
:102C30004BFF00212C20FFF747FF8D212A20FFF7B3
:102C400043FF3E212B20FFF73FFF40211520FFF7D8
:102C50003BFF002000BD00B5FFF7DAFEFFF7C0FF25
:102C6000FFF7B8FFFFF76CFF4120FFF784FF00BDBF
:102C700000B5FFF7B5FFFFF7ADFFFFF761FF00BD40
:102C80002DE9FE4F0646884691469A46DDF830B05B
:102C9000022002900020019000900C2E06D00E2EF3
:102CA00009D1122001901020009005E077200190BA
:102CB0003020009000E000BF00BF019840F080018C
:102CC0000220FFF701FF80210420FFF746FF0021CB
:102CD0000120FFF7F9FE80210A20FFF723FF0025DE
:102CE00006E018F805100920FFF7EEFE681C85B213
:102CF0004D45F6DB31460120FFF7E6FE0C2E03D1F1
:102D000080210D20FFF70EFF4FF4167500BF042041
:102D1000FFF7EFFE0446681E85B235B104F00100EE
:102D200018B9009820400028F1D080210D20FFF72D
:102D300014FF002D38D00620FFF7DBFE00F01B004B
:102D400078BB002002900198204000F0010008B1FB
:102D5000012002900C2E27D10A20FFF7CAFE04465C
:102D60000C20FFF7C6FE00F007072FB1601E07EB2F
:102D7000C0008BF8000003E0E006000E8BF80000B6
:102D800004B90124122C00DD1224002506E00920DC
:102D9000FFF7AFFE0AF80500681C85B2A542F6DB16
:102DA00002E0FFE70220029080210C20FFF7BAFE2C
:102DB00000210120FFF788FE0298BDE8FE8F70B564
:102DC00087B005460C4608210846FFF7C6FE0721D6
:102DD0000D20FFF779FE03211420FFF7A3FE09E081
:102DE000083800400010024000080140040C014077
:102DF0000000B0B88DF8045006A801AB012201A96B
:102E000000900C20FFF73CFF064656B99DF81800CD
:102E1000102806D19DF8040020709DF80500607010
:102E200000E00226304607B070BDF0B587B0054619
:102E3000002708210846FFF790FE00210D20FFF72C
:102E400043FE80210E20FFF788FE93208DF80400BA
:102E500020208DF8050006A801AB022201A90090F0
:102E60000C20FFF70DFF064686B9002407E001A8F5
:102E7000005D285501A8005D4740601CC4B2042CC9
:102E8000F5DB01A8005DB84200D0022680210E20AB
:102E9000FFF748FE304607B0F0BD2DE9F041074688
:102EA0008846154604210520FFF757FE0021012022
:102EB000FFF70AFE80210A20FFF734FE002405E018
:102EC000395D0920FFF700FE601CC4B24445F7DB02
:102ED00003210120FFF7F8FDFF2400BF0520FFF7C5
:102EE00008FE0646601EC4B21CB106F004000028AD
:102EF000F4D02220FFF7FDFD28702120FFF7F9FD17
:102F00006870BDE8F08170B587B0054693208DF8F4
:102F1000040070208DF8050000208DF80A000024C0
:102F20000BE0295D01AAA01C11549DF80A00295D3F
:102F300048408DF80A00601CC4B2042CF1DB0DF18E
:102F40000B02072101A8FFF7A8FF08210846FFF799
:102F500004FE06A801AB092201A900900C20FFF78E
:102F60008FFE06462EB99DF81800182801D10026BC
:102F700000E00226304607B070BD2DE9F04187B071
:102F800004460D4616461F468DF804408DF8055040
:102F90003068CDF80600B088ADF80A0038680390B4
:102FA00006A801AB0C2201A900900E20FFF768FED5
:102FB0008046B8F1000F05D10820FFF79AFD00F018
:102FC000080008B94FF00208404607B0BDE8F0819C
:102FD000F0B587B005460E4630208DF804008DF818
:102FE00005500DF10602022101A8FFF756FF06A8C1
:102FF00001AB042201A900900C20FFF741FE074617
:103000006FB99DF81800902809D1002404E001A8A8
:10301000005D3055601CC4B2102CF8DB00E00227C4
:10302000384607B0F0BDF0B587B006460F46A02081
:103030008DF804008DF805600DF10602022101A84B
:10304000FFF72BFF06A801AB042201A900900C207A
:10305000FFF716FE05464DB99DF81800042805D166
:103060009DF8040000F00F000A2800D0022515BBCF
:10307000002404E0385D01A90855601CC4B2102C7E
:10308000F8DB05AA102101A8FFF707FF06A801AB8E
:10309000122201A900900C20FFF7F2FD05464DB960
:1030A0009DF81800042805D19DF8040000F00F00D9
:1030B0000A2800D00225284607B0F0BD10B587B019
:1030C00050208DF8040000208DF805000DF1060257
:1030D000022101A8FFF7E1FE06A801AB042201A925
:1030E00000900C20FFF7CCFD0446002007B010BD77
:1030F000F0B587B006460D4617468DF804608DF88A
:1031000005500DF10602022101A8FFF7C6FE06A830
:1031100001AB042201A900900C20FFF7B1FD044689
:103120004CB99DF81800042805D19DF8040000F062
:103130000F000A2800D00224A4B93868019002AA1E
:10314000042101A8FFF7A9FE0020069006A801AB04
:10315000062201A900900C20FFF792FD0446022CE4
:1031600000D00024FCB9B0208DF804008DF8055083
:103170000DF10602022101A8FFF78FFE06A801ABA0
:10318000042201A900900C20FFF77AFD04464CB9F7
:103190009DF81800042805D19DF8040000F00F00E8
:1031A0000A2800D00224204607B0F0BD70B587B0D1
:1031B00005460E46C2208DF804008DF805500DF12D
:1031C0000602022101A8FFF768FE06A801AB04224F
:1031D00001A900900C20FFF753FD04464CB99DF85F
:1031E0001800042805D19DF8040000F00F000A28FB
:1031F00000D00224CCB900208DF804008DF8050021
:103200008DF806008DF8070002AA042101A8FFF737
:1032100044FE06A801AB062201A900900C20FFF78E
:103220002FFD0446022C00D0002414B1022007B068
:1032300070BDB0208DF804008DF805600DF1060218
:10324000022101A8FFF729FE06A801AB042201A96B
:1032500000900C20FFF714FD04464CB99DF81800AF
:10326000042805D19DF8040000F00F000A2800D0C2
:1032700002242046DBE7000008B503208DF800009B
:1032800000208DF801008DF8020001208DF8030068
:10329000684600F0BCFF08BDF0B503460C46154675
:1032A000642093FBF0F0C6B2642093FBF0F700FBC0
:1032B0001730C1B2132E02DD01F16400C1B208461D
:1032C000CF1701EB977701EBA707BAB2072092FB64
:1032D000F0F700FB172082B25719601EDFF8D4C345
:1032E0001CF80000384482B2CF1701EB9777BF106B
:1032F000A1EB87071FB9032C01DA501E82B2072009
:1033000092FBF0F700FB1720C0B2F0BD0146CA17D0
:1033100001EB92729210A1EB820292B9642091FBB0
:10332000F0F200FB121050B94FF4C87091FBF0F2AC
:1033300000FB121008B9012070470020FCE70120B3
:10334000FAE70020F8E770B500260024002501F018
:10335000F1FE0646D848B6FBF0F4D8480088A042F3
:103360003CD0D6490C8040F2B27510E02846FFF7F9
:10337000CDFF40B1B4F5B77F02D3A4F5B77404E034
:10338000681C85B206E0A4F26D14681C85B2B4F521
:10339000B67FEBD800BFCA488580002516E0C84933
:1033A0008888FFF7B3FF30B1012D04D11D2C01D364
:1033B0001D3C09E00CE0C348405DA04203D8C14871
:1033C000405D241A00E003E0681C85B21C2CE6D2A4
:1033D00000BF681CBA498871601CC871B648B6FB4A
:1033E000F0F100FB11644FF46160B4FBF0F0B449FC
:1033F00008704FF46160B4FBF0F100FB11403C2118
:10340000B0FBF1F0AE4948704FF46160B4FBF0F1ED
:1034100000FB11403C21B0FBF1F201FB1200A84976
:1034200088700B46DA7999799888FFF735FFA449B7
:103430000872002070BD2DE9F05F06460F469046E9
:103440009946DDE90AAB002440F2B270864203DB04
:1034500040F63300864202DD0120BDE8F09F40F2D5
:10346000B2750AE02846FFF751FF10B196480444B0
:1034700001E096480444681C85B2B542F2DB781E30
:10348000C7B2002510E08F48405D40F2A3214843B9
:1034900004EBC0143046FFF739FF18B1012D01D1FC
:1034A00085480444681C85B2BD42ECDBA8F10100EC
:1034B00040F2A321484304EBC014C9EB4910C0EB10
:1034C000092004EB0014CAEB0A1004EB80045C44EE
:1034D00001214FF0C05001F02CFA012001F01BFF38
:1034E000204601F030FE01F061FE0020B5E71CB57A
:1034F000002401214FF0C05001F01BFA012001F01F
:103500000AFF042001F0CFFE45F25001884240D06E
:1035100001F094FE012001F06CF904E0601CC4B2DB
:103520000A2000F07EFB412001F0CBF808B9FA2C0C
:10353000F4DBFA2C01DB01201CBD4FF4807001F09C
:1035400074F9012001F077F901F030FE01F037FE47
:103550000121084601F0CEFD01F028FE01F0D7FD63
:1035600047F6FF7001F0FCFD01F020FE322014212F
:103570000D230922CDE900100A2140F2E270FFF785
:103580005AFF01F0CDFD45F25001042001F07FFE0D
:1035900007E001F014FE0121084601F0ABFD01F047
:1035A00005FEFFF769FEFFF7CEFE0020C4E70EB56B
:1035B000012001F029FE08B1FFF7C5FE022001F04D
:1035C00023FEA0B1022001F02FFEFFF7BCFE3C4815
:1035D00080783B4949783A4A1278CDE90021029037
:1035E0003748C3798279818839A001F0F1FE05203E
:1035F00001F01AFE01F0DAFD0EBD2DE9F05F06467E
:103600000F4690469946DDE90AAB002440F2B270BD
:10361000864203DB40F63300864202DD0120BDE82E
:10362000F09F40F2B2750AE02846FFF76FFE10B136
:103630002548044401E025480444681C85B2B5428D
:10364000F2DB781EC7B2002510E01E48405D40F254
:10365000A321484304EBC0143046FFF757FE18B1CE
:10366000012D01D114480444681C85B2BD42ECDB35
:10367000A8F1010040F2A321484304EBC014C9EBB8
:103680004910C0EB092004EB0014CAEB0A1004EB4C
:1036900080045C4401214FF0C05001F04AF9012040
:1036A00001F039FE204601F069FD01F07FFD0020A8
:1036B000B5E70000F856000880510100B400002072
:1036C00024380020045700080085E2018033E1011E
:1036D000416C61726D2054696D653A25642D2564D5
:1036E0002D25642025643A25643A25640A000000EB
:1036F00008B50121102001F00FF94FF40050ADF88A
:10370000000010208DF8030003208DF802006946A8
:10371000D54800F045FE4FF40051D34800F0EDFECF
:1037200000F0CDF9002000F00EFA08BD10B500241D
:103730004FF40051CC4800F0E2FE052000F098F96B
:10374000FF2000F095F904464FF40051C64800F000
:10375000D4FE204610BD10B504464FF40051C248B7
:1037600000F0CDFE012000F083F9204600F080F942
:103770004FF40051BC4800F0C0FE10BD10B54FF42E
:103780000051B94800F0BBFE062000F071F94FF47B
:103790000051B54800F0B1FE10BD10B54FF4005116
:1037A000B14800F0ACFE042000F062F94FF4005183
:1037B000AD4800F0A2FE10BD10B500244FF400513A
:1037C000A94800F09CFE902000F052F9002000F083
:1037D0004FF9002000F04CF9002000F049F9FF20DB
:1037E00000F046F944EA0024FF2000F041F90443C8
:1037F0004FF400519C4800F080FE204610BD2DE99A
:10380000F04106460C4617464FF40051964800F02A
:1038100076FE032000F02CF9C4F3074000F028F9ED
:10382000C4F3072000F024F9E0B200F021F90025EC
:1038300005E0FF2000F01CF97055681C85B2BD4200
:10384000F7DB4FF40051884800F057FEBDE8F081E7
:1038500010B500BFFFF76AFF00F001000028F9D1A2
:1038600010BD2DE9F04106460C461746FFF786FFCE
:103870004FF400517C4800F042FE022000F0F8F8BE
:10388000C4F3074000F0F4F8C4F3072000F0F0F8A8
:10389000E0B200F0EDF8002504E0705D00F0E8F81B
:1038A000681C85B2BD42F8DB4FF400516E4800F051
:1038B00024FEFFF7CDFFBDE8F0812DE9F04107467A
:1038C0000E461446F0B2C0F58075AC4200DC2546C9
:1038D00012E02A4631463846FFF7C3FFAC4200D11A
:1038E0000BE02F442E44601B84B2B4F5807F02DDD0
:1038F0004FF4807500E02546EBE700BFBDE8F0819E
:1039000010B504462403FFF739FFFFF7A1FF4FF47A
:103910000051554800F0F3FD202000F0A9F8C4F351
:10392000074000F0A5F8C4F3072000F0A1F8E0B2CA
:1039300000F09EF84FF400514B4800F0DEFDFFF719
:1039400087FF10BD2DE9F04781460F4616464FEA26
:103950001738C7F30B0ACAF58054A64200DC344678
:1039600044E04FEA08314FF480524048FFF747FFE8
:10397000002508E00AEB05003C49085CFF2800D060
:1039800003E0681C85B2A542F4DB00BFA54216DA4D
:103990004046FFF7B5FF002507E019F8050005EBE5
:1039A0000A01324A5054681C85B2A542F5DB4FEA41
:1039B00008314FF480522D48FFF77FFF04E0224684
:1039C00039464846FFF779FFA64200D10FE008F1DB
:1039D00001084FF0000AA1442744301B86B2B6F517
:1039E000805F02DD4FF4805400E03446B9E700BF49
:1039F000BDE8F08710B5FFF7C1FEFFF729FF4FF4D0
:103A00000051194800F07BFDC72000F031F84FF459
:103A10000051154800F071FDFFF71AFF10BD10B5F9
:103A20004FF40051104800F06AFDB92000F020F872
:103A30004FF400510C4800F060FD032000F0CDF879
:103A400010BD10B54FF40051074800F058FDAB20F1
:103A500000F00EF84FF40051034800F04EFD032033
:103A600000F0BBF810BD0000001001402E3800200F
:103A700070B50546002405E0601CC4B2C82C01DD09
:103A8000002070BD0221394801F0FDFA0028F3D072
:103A90002946364801F0A4FA002405E0601CC4B2AF
:103AA000C82C01DD0020ECE70121304801F0EBFAE1
:103AB0000028F3D02D4801F095FAC0B2E1E700B537
:103AC00087B00121042000F027FF0121080300F046
:103AD00023FFE020ADF8180018208DF81B0003200C
:103AE0008DF81A0006A9224800F05AFCE02120486F
:103AF00000F003FD0020ADF804004FF48270ADF833
:103B000006000020ADF808000220ADF80A000120F0
:103B1000ADF80C004002ADF80E003820ADF81000F2
:103B20000020ADF812000720ADF8140001A90F48DD
:103B300001F080F901210D4801F021FAFF20FFF783
:103B400097FF07B000BD10B50446084800884FF63F
:103B5000C77108400549088008460088204308804E
:103B60000121024801F00BFA10BD000000300140B5
:103B70000008014008B50121082000F0CDFE022018
:103B8000ADF8000010208DF8030003208DF802002E
:103B90006946044800F004FC0221024800F0ADFC34
:103BA00008BD0000000C014010B56FF0040000F0EB
:103BB00078FB2E4800682E49B0FBF1F02D490870C3
:103BC0000846007800EB4001C1EBC0104FF6FF71D2
:103BD00001EAC0002849088010BD0146254A127834
:103BE0004A434FF0E0235A6100229A611A46126953
:103BF00042F001021A6100BF4FF0E022106900F0AC
:103C000001021AB100F48032002AF5D04FF0E02210
:103C1000126922F001024FF0E0231A6100229A613A
:103C200070470146144A12884A434FF0E0235A6114
:103C300000229A611A46126942F001021A6100BF1D
:103C40004FF0E022106900F001021AB100F4803256
:103C5000002AF5D04FF0E022126922F001024FF065
:103C6000E0231A6100229A6170470000A000002042
:103C700000127A00B6000020B8000020A64A0A40D0
:103C80000243A64B1A6070470146072323EA01024C
:103C90001202A24B1B1D18684FF6FF031840A04BE1
:103CA000184310439D4B1B1D186070472DE9F041D0
:103CB0000746884614461D462846FFF7E5FFC5F12E
:103CC000040007FA00F60F20284100EA0800064326
:103CD00006F00F06E21704EBD2625211920002F1D5
:103CE000E022D2F800212146E31704EBD3635B11F5
:103CF000A4EB431C012303FA0CF31A432046E317F9
:103D000004EBD3635B119B0003F1E023C3F80021B4
:103D10008448005D40EA061082490855BDE8F081FC
:103D200070B504460B46CE1701EB9676C6F38700B6
:103D3000CE1701EB9676B610A1EB8606B606350EC9
:103D4000794B9B6943F00103774EB3614FEAB63379
:103D500053F820300F26AE40B343744E46F820305F
:103D6000334653F8203004FA05F61E436F4B43F8F0
:103D700020606F4B1B6801268E4033436C4E3360CE
:103D800002F0010343B16A4B0C331B6801268E40DD
:103D90003343674E0C36336002F0020343B1644B89
:103DA00008331E6801238B401E43614B08331E609D
:103DB00070BD00B500205C490861C86014204861EE
:103DC00000208861C8610846006840F00100086072
:103DD000084640685749084053494860084600680B
:103DE00055490840504908600846006820F4802082
:103DF00008600846406820F4FE00486000208860A3
:103E000000214FF00060FFF739FF00BD30BF704761
:103E100072B6704762B6704700B540480830006817
:103E200040F004003D49083108603F48C06940F057
:103E300080503D49C8614148406840F480703F4926
:103E400048600846006840F00400086008460068C2
:103E500040F002000860FFF7D9FF00BD3048001DA8
:103E60002E49091D08607047014649062E4A92698D
:103E700042F001022C4B9A612C4A083A526822F017
:103E8000E0622A4B083B5A601A4652680A435A605D
:103E9000704730B504460025FFF78BFF22480068C5
:103EA00040F480302049086000BF1F480068400C83
:103EB0000028FAD04FF480601B494860A01EC4B2AD
:103EC0000846406840EA844048600846406840F43C
:103ED000803048601A48006840F032001849086095
:103EE0001148006840F080700F49086000BF0E481C
:103EF0000068400E0028FAD00B48406840F00200ED
:103F00000949486005E008484068C0F3870505F0A6
:103F10000305022DF7D130BD80FFFF1F08ED00E043
:103F20000000FA0500E400E0001002400800014033
:103F3000000401400000FFF8FFFFF6FE00700040A3
:103F400000200240014600BF704700BF974A128818
:103F500002F04002002AF9D0C2B2944B1B1D1A8015
:103F6000704710B586B00446012144F2040000F009
:103F7000D3FC4FF40070ADF8140003208DF8160048
:103F800018208DF8170005A9894800F009FA4FF4A8
:103F90008060ADF8140004208DF8170005A984484E
:103FA00000F0FEF925208DF8000003208DF80100B7
:103FB0008DF8020001208DF80300684600F027F913
:103FC00001940020ADF80800ADF80A00ADF80C002F
:103FD000ADF810000C20ADF80E0001A9734800F0F8
:103FE00042FD012240F22551704800F0D4FD01212C
:103FF0006E4800F0C4FD06B010BD10B588B0044690
:104000000121092000F088FC0121880400F091FCC6
:104010004FF48060ADF81C0003208DF81E001820BE
:104020008DF81F0007A9634800F0BAF94FF400604B
:10403000ADF81C0004208DF81F0007A95D4800F0B2
:10404000AFF927208DF8080001208DF809008DF8C0
:104050000A008DF80B0002A800F0D9F803940020A4
:10406000ADF81000ADF81200ADF81400ADF818006E
:104070000C20ADF816000020ADF80000ADF80200ED
:104080004FF40070ADF804000020ADF8060069465A
:10409000494800F05DFD03A9474800F0E4FC012217
:1040A00040F22551444800F076FD0121424800F0DD
:1040B00066FD08B010BD10B540F225513E4800F035
:1040C0004FFE10B33C4800F0CBFDC4B23B48008823
:1040D00000F40040C8B93948008800F4804060B15D
:1040E0000A2C03D000203549088020E0334800889E
:1040F00040F400403149088019E00D2C06D12F48CA
:10410000008840F480402D49088010E02B4800884A
:10411000C0F30D002A490C5428480088401C274948
:10412000088008460088C72801DD0020088010BDEF
:1041300010B540F225511D4800F012FE10B31B4887
:1041400000F08EFDC4B21D48008800F40040C8B9DC
:104150001A48008800F4804060B10A2C03D0002087
:104160001649088020E01548008840F400401349B3
:10417000088019E00D2C06D11048008840F48040DA
:104180000E49088010E00D480088C0F30D000C496E
:104190000C540A480088401C0849088008460088DA
:1041A000C72801DD0020088010BD00000038014054
:1041B00000080140000C014000480040C000002001
:1041C0002E4800200948804709480047FEE7FEE7DF
:1041D000FEE7FEE7FEE7FEE7FEE7FEE7FEE7FEE7B7
:1041E00004480549054A064B70470000CF280008DF
:1041F0003101000858490020584F0020584B00203A
:10420000584B002031490143314A1160704770B565
:10421000002100230F22C47804B32D4C246804F439
:10422000E064C4F5E064210AC1F10403CA404478A3
:1042300004FA03F18478144021430901254C0678DF
:10424000A155047804F01F050124AC4005786D11D8
:10425000AD0005F1E025C5F8004109E0047804F05F
:104260001F050124AC401C4D0678761145F8264008
:1042700070BD1A4A0A400243154B1B1F1A60704753
:1042800039B1134A121D12680243114B1B1D1A60EB
:1042900006E00F4A121D126882430D4B1B1D1A6067
:1042A0007047042808D14FF0E021096941F004016A
:1042B0004FF0E022116107E04FF0E021096921F0A1
:1042C00004014FF0E0221161704700000000FA0580
:1042D0000CED00E000E400E080E100E080FFFF1F63
:1042E00010B50446CC48844208D10121042000F0D6
:1042F0002DFB0021042000F029FB46E0C748844242
:1043000008D10121082000F021FB0021082000F045
:104310001DFB3AE0C248844208D10121102000F080
:1043200015FB0021102000F011FB2EE0BD48844257
:1043300008D10121202000F009FB0021202000F0FD
:1043400005FB22E0B848844208D10121402000F05A
:10435000FDFA0021402000F0F9FA16E0B34884424B
:1043600008D10121802000F0F1FA0021802000F026
:10437000EDFA0AE0AE48844207D10121801500F031
:10438000E5FA0021A01500F0E1FA10BD10B50121F9
:10439000084600F0DBFA0021012000F0D7FA10BD3A
:1043A0002DE9F041024600250026002000230024CC
:1043B000002791F803C00CF00F0591F803C00CF032
:1043C000100CBCF1000F03D091F802C04CEA0505B7
:1043D00091F800C0BCF1000F31D0146800202BE030
:1043E0004FF0010C0CFA00F3B1F800C00CEA030620
:1043F0009E4220D183004FF00F0C0CFA03F7BC4310
:1044000005FA03FC4CEA040491F803C0BCF1280F40
:1044100006D14FF0010C0CFA00FCC2F814C00AE0FF
:1044200091F803C0BCF1480F05D14FF0010C0CFA14
:1044300000FCC2F810C0401C0828D1D31460B1F8A9
:1044400000C0BCF1FF0F34DD546800202EE000F105
:10445000080C4FF0010808FA0CF3B1F800C00CEAA0
:1044600003069E4221D183004FF00F0C0CFA03F794
:10447000BC4305FA03FC4CEA040491F803C0BCF108
:10448000280F05D100F1080C08FA0CF8C2F81480C6
:1044900091F803C0BCF1480F07D100F1080C4FF0B0
:1044A000010808FA0CF8C2F81080401C0828CED386
:1044B0005460BDE8F0814FF6FF71018002218170E8
:1044C0000421C17070470246002093680B400BB175
:1044D000012000E0002070470146886880B27047E4
:1044E00002460020D3680B400BB1012000E0002001
:1044F00070470146C86880B27047016170474161EA
:1045000070470AB1016100E041617047C1607047C6
:104510004FF480320A4382618161826182698269DB
:10452000704702460020434B18684FF680731840CE
:1045300040EA021008433F4B186070473E49C8618B
:104540007047F0B50A46002300240021002500F042
:104550000046B6F1004F02D1364EF16901E0354E0A
:104560007168C0F3034583B200F44016B6F5401FEE
:1045700008D121F070612F4E766826F070662D4FBD
:104580007E6012E000F48016B6F5801F06D1032687
:1045900006FA05F4A14341F0706106E0460D3601CC
:1045A00003FA06F6B14341F0706122B1460D3601BF
:1045B00003FA06F6314300F00046B6F1004F02D18F
:1045C0001C4EF16101E01B4E7160F0BD30B5002260
:1045D0008B071C0F0F2303FA04F2164B08338C10C1
:1045E00053F824309343134C08348D1044F825308D
:1045F00023468C1053F824308C07240F00FA04F45F
:1046000023430C4C08348D1044F8253030BD0A4942
:10461000DC3108607047000000080140000C0140D8
:10462000001001400014014000180140001C01402E
:10463000002001400000014000002042DF480068E7
:1046400040F00100DD49086008464068DC49084048
:10465000DA49486008460068DA490840D7490860E6
:104660000846006820F4802008600846406820F46E
:10467000FE0048604FF41F0088607047CF4909680A
:1046800021F48031CD4A11601146096821F480215E
:104690001160B0F5803F03D0B0F5802F0ED106E059
:1046A000C649096841F48031C44A116007E0C34932
:1046B000096841F4A021C14A116000E000BF00BFB9
:1046C000704710B501460022002300204A11012A3C
:1046D00002D1BA4C236806E0022A02D1B74C236A01
:1046E00001E0B64C636A01F01F02012494401C40B3
:1046F0000CB1012000E0002010BD38B50020009072
:104700000024002500BF3120FFF7DBFF054600989D
:10471000401C00900098B0F5A06F01D0002DF2D0A1
:104720003120FFF7CEFF08B1012400E0002420462D
:1047300038BD01460020A14A106820F0F80040EA88
:10474000C10010607047A049086070470246002011
:104750009A4B586820F47C1042EA01031843974BA7
:104760005860704798490866704701460020934A90
:10477000506820F003000843506070478F4840683D
:1047800000F00C007047014600208C4A506820F071
:10479000F00008435060704701460020874A506887
:1047A00020F4E06008435060704701460020834ACF
:1047B000506820F4605040EAC1005060704729B151
:1047C0007E4A527A02437D4B5A7204E07B4A527A07
:1047D00082437A4B5A7270477B49D83108607047E0
:1047E00001460020754A506820F44040084350605C
:1047F00070470021714A20321170704A82F82010EF
:10480000012802D004280AD104E001216B4A203299
:10481000117005E00521694A2032117000E000BFE7
:1048200000BF70476949086070476449096A0143DD
:10483000624A11627047654944390860704730B573
:1048400000210022002400235C4D6D6805F00C015E
:1048500021B1042905D0082923D105E05C4D05606C
:1048600022E05B4D05601FE0544D6D6805F4701249
:10487000524D6D6805F48034022505EB92421CB957
:10488000544D554305600BE04C4D6D6805F4003503
:104890001DB1504D5543056002E04D4D5543056037
:1048A00002E04B4D056000BF00BF444D6D6805F050
:1048B000F0010909484D6B5C0568DD4045603F4DDE
:1048C0006D6805F4E061090A434D6B5C4568DD40A5
:1048D00085603A4D6D6805F46051C90A3E4D6B5CC8
:1048E0004568DD40C560354D6D6805F44041890B74
:1048F0003A4D6B5CC568B5FBF3F5056130BD29B178
:104900002E4A526902432D4B5A6104E02B4A5269E8
:1049100082432A4B5A61704729B1284A926902435F
:10492000264B9A6104E0254A92698243234B9A619F
:10493000704729B1214AD2690243204BDA6104E071
:104940001E4AD26982431D4BDA61704729B11B4A66
:10495000D2680243194BDA6004E0184AD2688243F5
:10496000164BDA60704729B1144A12690243134B9F
:104970001A6104E0114A12698243104B1A617047B0
:1049800012494039086070470F49C86470470B49A5
:10499000C87170470948406A40F080700749486212
:1049A000704701460020054A92680A400AB101207A
:1049B00000E00020704701498872704700100240F3
:1049C0000000FFF8FFFFF6FE000042428004424272
:1049D00000127A0000093D00C2000020D200002031
:1049E00010B50446FB48844209D101218803FFF732
:1049F000ADFF00214FF48040FFF7A8FF32E0F648FA
:104A0000844209D101214804FFF7ADFF00214FF492
:104A10000030FFF7A8FF25E0F048844209D10121CA
:104A20008804FFF7A0FF00214FF48020FFF79BFFD1
:104A300018E0EB48844209D10121C804FFF793FF35
:104A400000214FF40020FFF78EFF0BE0E548844281
:104A500008D101210805FFF786FF00214FF48010DF
:104A6000FFF781FF10BD2DE9F04786B005460E46E1
:104A70000024A24600BFA1460027B08900B100BFB4
:104A80002F462C8A4CF6FF700440F08804432C8299
:104A9000AC894EF6F3100440B0883189084371891F
:104AA00008430443AC81AC8A4FF6FF400440B08910
:104AB0000443AC8201A8FFF7C2FEC648874202D178
:104AC000DDF810A001E0DDF80CA0A88900F400409A
:104AD00040B10AEBCA0000EB0A1031684900B0FB94
:104AE000F1F807E00AEBCA0000EB0A103168890010
:104AF000B0FBF1F86420B8FBF0F004012009642158
:104B000001FB1089A88900F4004040B1322000EB7D
:104B1000C900B0FBF1F000F00700044308E03220C8
:104B200000EB09106421B0FBF1F000F00F0004432A
:104B30002C8106B0BDE8F0874FF4165101600021CA
:104B40008180C18001810C214181002181817047D8
:104B500010B502460020108A4FF2FF0318400B8860
:104B60004C8823438C882343CC88234318431082EA
:104B700010BD0021018041808180C180704721B13A
:104B8000828942F40052828104E082894DF6FF73EB
:104B90001A4082817047F0B50346002400260025A4
:104BA000002040F66A17B94200D100BF1846C1F391
:104BB000421401F01F06012707FA06F5012C01D166
:104BC0000C3004E0022C01D1103000E014301AB196
:104BD00007682F43076002E00768AF430760F0BD36
:104BE0001AB1838A0B43838202E0838A8B438382D8
:104BF0007047028A4FF6F0731A400282028A0A4313
:104C00000282704782894FF2FF731A408281828943
:104C10000A438281704721B1828942F00202828177
:104C200004E082894FF6FD731A4082817047028A40
:104C30004FF6DF731A400282028A0A4302827047EB
:104C400021B1028A42F48042028204E0028A4BF6D9
:104C5000FF731A4002827047C1F3080282807047D6
:104C600001468888C0F308007047818941F001013E
:104C700081817047028BD2B20283028B42EA012209
:104C800002837047028B02F47F420283028B0A4345
:104C90000283704721B1828A42F02002828204E0BE
:104CA000828A4FF6DF731A408282704721B1828A6E
:104CB00042F01002828204E0828A4FF6EF731A40BB
:104CC0008282704721B1828A42F00802828204E027
:104CD000828A4FF6F7731A408282704721B1828927
:104CE00042F40042828103E08289C2F30E02828193
:104CF000704721B1828A42F40062828204E0828A93
:104D00004FF2FF731A4082827047828A4FF6FB731C
:104D10001A408282828A0A438282704721B1828A43
:104D200042F00202828204E0828A4FF6FD731A404A
:104D30008282704702460020B1F5007F00D100BF9B
:104D400013880B400BB1012000E00020704701F4F4
:104D50000072B2F5007F00D100BFCA4302807047E5
:104D600070B50246002400230025002040F66A1694
:104D7000B14200D100BFC1F3421501F01F0301266B
:104D800006FA03F3012D02D19689334006E0022D85
:104D900002D1168A334001E0968A33400C12012674
:104DA00006FA04F41688344013B10CB1012000E077
:104DB000002070BD10B50022002340F66A14A14205
:104DC00000D100BF0A1201249440A3B2DC43048046
:104DD00010BD000000380140004400400048004081
:104DE000004C00400050004010B50446BE488442CC
:104DF00008D101218014FFF7A9FD0021A014FFF7BD
:104E0000A5FD16E0B948844208D101210014FFF73E
:104E1000AAFD00212014FFF7A6FD0AE0B448844251
:104E200007D10121C013FFF79EFD0021E013FFF71A
:104E30009AFD10BD10B50022028802F441520B8881
:104E40004C8823438C882343CC8823430C892343F9
:104E50004C8923438C892343CC8923431A43028002
:104E6000838B4FF2FF74234083830B8A038210BD30
:104E70002DE9F04F85B005460C464FF0000902279A
:104E80004FF000084FF0010B0026B246A88B4FF2FE
:104E900040010840A88302202884B5F81C90A0682F
:104EA000022801D100BF38E0A08810B94FF0010BF3
:104EB00001E04FF0020B8D48854200D100E000BFB9
:104EC0006846FFF7BCFCDDF800A0E088B0F5007F85
:104ED0000AD14FEA1A2000EB80004000A168B0FB25
:104EE000F1F0401D86B20BE04FEA4B10BAFBF0F038
:104EF00000EB80004000A168B0FBF1F0401D86B2DD
:104F00000A20B6FBF0F606F00108A6EB0800C0F395
:104F10004F074FF6FF7000EA0828022F01DBFF2F32
:104F200002DD02274FF00008E08840EA080038431D
:104F30002884A088A1890843618808432188084300
:104F400040F4006040EA0909A5F81C9005B0BDE8EE
:104F5000F08F0021018041808180C18001814181E9
:104F60008181C18107210182704700210180418038
:104F70008180C1800221816000218181704721B13F
:104F8000028842F04002028004E002884FF6BF73BC
:104F90001A400280704721B1828B42F48062828382
:104FA00004E0828B4FF6FF331A408283704730B59E
:104FB000002400230C110125A540ABB21AB185884D
:104FC0001D43858002E085889D43858030BD1AB1F0
:104FD00083880B43838002E083888B438380704700
:104FE000818170470146888970474FF6FF62914280
:104FF00004D0028842F48072028004E002884FF6F6
:10500000FF631A400280704721B1828842F0040297
:10501000828004E082884FF6FB731A4082807047DA
:1050200002884FF2FF731A40028002880A4302800E
:105030007047018841F480510180704721B1028896
:1050400042F40052028004E002884DF6FF731A40D9
:105050000280704702460020012901D0108B00E039
:10506000908A70470146088A7047B1F5804F04D195
:10507000028842F48042028004E002884BF6FF730B
:105080001A40028070470246002013890B400BB182
:10509000012000E000207047CA4302817047F0B54C
:1050A0000246002000240023002501F00F070126FE
:1050B000BE40B4B20B1101269E40B3B2968806EAF8
:1050C00003051689264016B10DB1012000E000202D
:1050D000F0BD10B5002201F00F040123A3409AB2E5
:1050E000D343038110BD0000003001400038004070
:1050F000003C004029B1504A128802434E4B1A80AE
:1051000004E04D4A128882434B4B1A8070474A484C
:10511000001D008840F010004749091D08807047B5
:105120004548001D00884FF6EF7108404249091DAF
:1051300008807047002140481C300188001F00880B
:1051400041EA0040704700B50246FFF7E0FF100C4F
:10515000394918310880091D0A80FFF7E1FF00BDB9
:1051600000B50246FFF7D3FFC2F3034032490831CE
:105170000880091D0A80FFF7D3FF00BD00B5024675
:10518000FFF7C5FF100C2C4920310880091D0A804B
:10519000FFF7C6FF00BD0020274910310988090725
:1051A000080B2549143109880843704700BF22487D
:1051B000001D008800F020000028F8D070471E482D
:1051C000001D00884FF6F77108401B49091D088033
:1051D00000BF1948001D008800F008000028F8D022
:1051E000704701460020144A121D12880A400AB175
:1051F000012000E0002070470F49091D0988814304
:105200000D4A121D11807047014600200A4A121DE6
:1052100012880A40D0B2084A12880A4012B108B176
:10522000012000E0002070470349091D09888143DF
:10523000014A121D118070470028004010B501205E
:10524000FFF79EFB0020FFF79BFB10BD2A4908607B
:1052500070472949091F0860704727498431086051
:10526000704701460020254A10884FF67F421040C3
:105270000843224A10807047014600201F4A1088C8
:105280004FF68072104008431C4A1080704708B5E2
:1052900000220092194A2C3A0092009A024400928D
:1052A000009A116008BD08B501460020009013481F
:1052B0002C3800900098084400900098008808BDA1
:1052C0000D489C300068C0B270470C480830008818
:1052D00040F0010009490831088070470648A030B5
:1052E0000068C0B2704705480830008840F00200EE
:1052F000024908310880704704860D422C6C00403A
:1053000010B501210807FFF72EFB00214FF0805058
:10531000FFF729FB10BD2A49086270472849086138
:10532000704701460020274A106820F0E00008433B
:10533000106070472249A0310860704710B50246DE
:105340000020204B186820F00300104318601E4B0B
:105350001B6843F004031C4C2360012901D130BFBA
:1053600000E020BF184B1B6823F00403164C236099
:1053700010BD1448006840F0040012490860084657
:10538000006840F0020008600F48006840F0040028
:105390000D49086000BF00BF30BF704701460020C4
:1053A000084A52680A400AB1012000E00020704714
:1053B0000449096841EA8001024A1160704700000F
:1053C00000000E420070004010ED00E07047000049
:1053D0000FB4044910B503AA029800F045F910BCB7
:1053E0005DF814FBBC0000200FB41CB5074B06AAE7
:1053F0007B4469460090059800F007F90020694653
:1054000000F016F91CBC5DF814FB00003D02000022
:105410002DE9F0410E460446002020622046E16856
:10542000884730B3252805D0D4E901219047206A68
:10543000401CF2E7E168204600278847050018D0A5
:10544000A5F14100192802D820354FF400673246F3
:10545000294620462760FAF7A5FE40B1012804D06E
:10546000F61D26F007060836D8E7361DD6E728468B
:10547000DAE7206ABDE8F08170B50C460546012ADE
:1054800005D02878800600D5EA69002302E00123D0
:1054900005E05B1C934202D2E05C0028F9D1A869C8
:1054A000E618C01AA861286A184428622846AFF393
:1054B000008004E0D5E9012114F8010B9047B442C3
:1054C000F8D32846AFF3008070BD00002DE9F0410D
:1054D0000646002410687529314616A510D0AFF392
:1054E0000080002802DA404213A507E031688A07ED
:1054F00001D512A502E0490704D511A5012401E058
:10550000AFF3008000210A2206F1240709E0B0FB76
:10551000F2FCB0FBF2F302FB1C003030785418466A
:10552000491C0028F3D123462A463046BDE8F04105
:1055300000F00CB8000000002D0000002B0000005F
:105540002000000070477047704770472DE9F04712
:105550000D4699469246044600F1240801688806E3
:1055600004D5E06921F01001216000E00120A8428B
:1055700001DD471B00E00027A1697A1902EB090051
:10558000081AA0612078C00602D42046AFF300803C
:10559000002608E0D4E901211AF806009047206AA5
:1055A000401C761C20624E45F4DB2078C0060AD5EC
:1055B0002046AFF3008006E0D4E901213020904777
:1055C000206A401C2062381EA7F10107F4DC07E0C6
:1055D000D4E9012118F805009047206A401C206298
:1055E000281EA5F10105F3DC2046AFF300802078EA
:1055F000000602D50220BDE8F0870120FBE700008D
:1056000001694A1C02610878704700B58FB0CDE986
:1056100001310021059105497944CDE90310114676
:105620006846FFF7F5FE0FB000BD0000E5FFFFFF85
:105630000A6802F8010B0A60704710B5436913B19C
:10564000AFF3008001E0FFF717FF012010BD1278D3
:1056500000F124010A7000224A700122EDE711686E
:105660004FF0FF32E9E70000074B70B50D467B4471
:10567000FFF7CBFF0446284600F008F810B14FF0C2
:10568000FF3070BD204670BDD9E8FFFF007B00F001
:1056900080007047754600F02BF8AE46050069465D
:1056A000534620F00700854618B020B5FEF798FD58
:1056B000BDE820404FF000064FF000074FF0000813
:1056C0004FF0000B21F00701AC46ACE8C009ACE894
:1056D000C009ACE8C009ACE8C0098D46704710B5F8
:1056E0000446AFF300802046BDE81040FAF772BDD3
:1056F00000487047F8480020000303060104060232
:10570000050003051F1C1F1E1F1E1F1F1E1F1E1F1F
:105710003057000800000020D80000006C0100088D
:1057200008580008D8000020804E000088010008BA
:105730000000000000000000000000000000000069
:105740000000000000000000000000000000000059
:10575000417474656E64616E636500000000000052
:1057600000000000526567697374657200000000F4
:10577000000000000000000079750000000000003B
:105780000000000000000000000000006F6A626B73
:105790000000000000000000000000000000000009
:1057A0000000000000FFFFFFFFFFFF0000000000FF
:1057B00000000000000000000000000002000000E7
:1057C000010000000000FF078029FFFFFFFFFFFF2F
:1057D00000A24A04000000000000000001020304CF
:1057E000060708090000000000000000000000009B
:1057F0000000000000000102030401020304060788
:0858000008090204060800007B
:0400000508000131BD
:00000001FF
